{
  "contractName": "UserCrud",
  "abi": [
    {
      "constant": false,
      "inputs": [
        {
          "name": "userAddress",
          "type": "address"
        },
        {
          "name": "userEmail",
          "type": "bytes32"
        },
        {
          "name": "userAge",
          "type": "uint256"
        }
      ],
      "name": "insertUser",
      "outputs": [
        {
          "name": "index",
          "type": "uint256"
        }
      ],
      "payable": false,
      "stateMutability": "nonpayable",
      "type": "function"
    },
    {
      "constant": true,
      "inputs": [
        {
          "name": "userAddress",
          "type": "address"
        }
      ],
      "name": "isUser",
      "outputs": [
        {
          "name": "success",
          "type": "bool"
        }
      ],
      "payable": false,
      "stateMutability": "view",
      "type": "function"
    },
    {
      "constant": false,
      "inputs": [
        {
          "name": "userAddress",
          "type": "address"
        }
      ],
      "name": "deleteUser",
      "outputs": [
        {
          "name": "index",
          "type": "uint256"
        }
      ],
      "payable": false,
      "stateMutability": "nonpayable",
      "type": "function"
    },
    {
      "constant": true,
      "inputs": [
        {
          "name": "userAddress",
          "type": "address"
        }
      ],
      "name": "getUser",
      "outputs": [
        {
          "name": "email",
          "type": "bytes32"
        },
        {
          "name": "age",
          "type": "uint256"
        }
      ],
      "payable": false,
      "stateMutability": "view",
      "type": "function"
    },
    {
      "constant": true,
      "inputs": [],
      "name": "getUsercount",
      "outputs": [
        {
          "name": "count",
          "type": "uint256"
        }
      ],
      "payable": false,
      "stateMutability": "view",
      "type": "function"
    },
    {
      "constant": false,
      "inputs": [
        {
          "name": "userAddress",
          "type": "address"
        },
        {
          "name": "userEmail",
          "type": "bytes32"
        },
        {
          "name": "userAge",
          "type": "uint256"
        }
      ],
      "name": "updateUser",
      "outputs": [
        {
          "name": "success",
          "type": "bool"
        }
      ],
      "payable": false,
      "stateMutability": "nonpayable",
      "type": "function"
    },
    {
      "constant": true,
      "inputs": [
        {
          "name": "index",
          "type": "uint256"
        }
      ],
      "name": "getUserByIndex",
      "outputs": [
        {
          "name": "userAddress",
          "type": "address"
        }
      ],
      "payable": false,
      "stateMutability": "view",
      "type": "function"
    },
    {
      "anonymous": false,
      "inputs": [
        {
          "indexed": true,
          "name": "userAddress",
          "type": "address"
        },
        {
          "indexed": false,
          "name": "index",
          "type": "uint256"
        },
        {
          "indexed": false,
          "name": "userEmail",
          "type": "bytes32"
        },
        {
          "indexed": false,
          "name": "userAge",
          "type": "uint256"
        }
      ],
      "name": "LogNewUser",
      "type": "event"
    },
    {
      "anonymous": false,
      "inputs": [
        {
          "indexed": true,
          "name": "userAddress",
          "type": "address"
        },
        {
          "indexed": false,
          "name": "index",
          "type": "uint256"
        },
        {
          "indexed": false,
          "name": "userEmail",
          "type": "bytes32"
        },
        {
          "indexed": false,
          "name": "userAge",
          "type": "uint256"
        }
      ],
      "name": "LogUpdateUser",
      "type": "event"
    },
    {
      "anonymous": false,
      "inputs": [
        {
          "indexed": true,
          "name": "userAddress",
          "type": "address"
        },
        {
          "indexed": false,
          "name": "index",
          "type": "uint256"
        }
      ],
      "name": "LogDeleteUser",
      "type": "event"
    }
  ],
  "bytecode": "0x6060604052341561000f57600080fd5b610b3a8061001e6000396000f300606060405260043610610083576000357c0100000000000000000000000000000000000000000000000000000000900463ffffffff16806329434e33146100885780634209fff1146100eb5780635c60f2261461013c5780636f77926b14610189578063a6a80661146101e5578063cc32588a1461020e578063ff5d32fe14610275575b600080fd5b341561009357600080fd5b6100d5600480803573ffffffffffffffffffffffffffffffffffffffff16906020019091908035600019169060200190919080359060200190919050506102d8565b6040518082815260200191505060405180910390f35b34156100f657600080fd5b610122600480803573ffffffffffffffffffffffffffffffffffffffff169060200190919050506104e5565b604051808215151515815260200191505060405180910390f35b341561014757600080fd5b610173600480803573ffffffffffffffffffffffffffffffffffffffff169060200190919050506105af565b6040518082815260200191505060405180910390f35b341561019457600080fd5b6101c0600480803573ffffffffffffffffffffffffffffffffffffffff16906020019091905050610844565b6040518083600019166000191681526020018281526020019250505060405180910390f35b34156101f057600080fd5b6101f86108e8565b6040518082815260200191505060405180910390f35b341561021957600080fd5b61025b600480803573ffffffffffffffffffffffffffffffffffffffff16906020019091908035600019169060200190919080359060200190919050506108f5565b604051808215151515815260200191505060405180910390f35b341561028057600080fd5b6102966004808035906020019091905050610a4d565b604051808273ffffffffffffffffffffffffffffffffffffffff1673ffffffffffffffffffffffffffffffffffffffff16815260200191505060405180910390f35b60008015156102e6856104e5565b15151415156102f457600080fd5b826000808673ffffffffffffffffffffffffffffffffffffffff1673ffffffffffffffffffffffffffffffffffffffff1681526020019081526020016000206000018160001916905550816000808673ffffffffffffffffffffffffffffffffffffffff1673ffffffffffffffffffffffffffffffffffffffff1681526020019081526020016000206001018190555060018080548060010182816103999190610a91565b9160005260206000209001600087909190916101000a81548173ffffffffffffffffffffffffffffffffffffffff021916908373ffffffffffffffffffffffffffffffffffffffff160217905550036000808673ffffffffffffffffffffffffffffffffffffffff1673ffffffffffffffffffffffffffffffffffffffff168152602001908152602001600020600201819055508373ffffffffffffffffffffffffffffffffffffffff167f57f7301fe8e6f5b36f73ccce215bfaee0be1dda153d32992eb9ac05da86686116000808773ffffffffffffffffffffffffffffffffffffffff1673ffffffffffffffffffffffffffffffffffffffff168152602001908152602001600020600201548585604051808481526020018360001916600019168152602001828152602001935050505060405180910390a2600180805490500390509392505050565b60008060018054905014156104fd57600090506105aa565b8173ffffffffffffffffffffffffffffffffffffffff1660016000808573ffffffffffffffffffffffffffffffffffffffff1673ffffffffffffffffffffffffffffffffffffffff1681526020019081526020016000206002015481548110151561056457fe5b906000526020600020900160009054906101000a900473ffffffffffffffffffffffffffffffffffffffff1673ffffffffffffffffffffffffffffffffffffffff161490505b919050565b60008060006105bd846104e5565b15156105c857600080fd5b6000808573ffffffffffffffffffffffffffffffffffffffff1673ffffffffffffffffffffffffffffffffffffffff16815260200190815260200160002060020154915060018080805490500381548110151561062157fe5b906000526020600020900160009054906101000a900473ffffffffffffffffffffffffffffffffffffffff1690508060018381548110151561065f57fe5b906000526020600020900160006101000a81548173ffffffffffffffffffffffffffffffffffffffff021916908373ffffffffffffffffffffffffffffffffffffffff160217905550816000808373ffffffffffffffffffffffffffffffffffffffff1673ffffffffffffffffffffffffffffffffffffffff1681526020019081526020016000206002018190555060018054809190600190036107039190610abd565b508373ffffffffffffffffffffffffffffffffffffffff167f9a67af531bfbfd34f63109e83cfab08e30f92a1827d5c3f50e8fa815469ff9f2836040518082815260200191505060405180910390a28073ffffffffffffffffffffffffffffffffffffffff167f24659ed7fa20faefd192de94aa063d3b6e668e49b0ca2738ca4d866db1ae9eee836000808573ffffffffffffffffffffffffffffffffffffffff1673ffffffffffffffffffffffffffffffffffffffff168152602001908152602001600020600001546000808673ffffffffffffffffffffffffffffffffffffffff1673ffffffffffffffffffffffffffffffffffffffff16815260200190815260200160002060010154604051808481526020018360001916600019168152602001828152602001935050505060405180910390a28192505050919050565b600080610850836104e5565b151561085b57600080fd5b6000808473ffffffffffffffffffffffffffffffffffffffff1673ffffffffffffffffffffffffffffffffffffffff168152602001908152602001600020600001546000808573ffffffffffffffffffffffffffffffffffffffff1673ffffffffffffffffffffffffffffffffffffffff1681526020019081526020016000206001015491509150915091565b6000600180549050905090565b6000610900846104e5565b151561090b57600080fd5b826000808673ffffffffffffffffffffffffffffffffffffffff1673ffffffffffffffffffffffffffffffffffffffff1681526020019081526020016000206000018160001916905550816000808673ffffffffffffffffffffffffffffffffffffffff1673ffffffffffffffffffffffffffffffffffffffff168152602001908152602001600020600101819055508373ffffffffffffffffffffffffffffffffffffffff167f24659ed7fa20faefd192de94aa063d3b6e668e49b0ca2738ca4d866db1ae9eee6000808773ffffffffffffffffffffffffffffffffffffffff1673ffffffffffffffffffffffffffffffffffffffff168152602001908152602001600020600201548585604051808481526020018360001916600019168152602001828152602001935050505060405180910390a2600190509392505050565b6000600182815481101515610a5e57fe5b906000526020600020900160009054906101000a900473ffffffffffffffffffffffffffffffffffffffff169050919050565b815481835581811511610ab857818360005260206000209182019101610ab79190610ae9565b5b505050565b815481835581811511610ae457818360005260206000209182019101610ae39190610ae9565b5b505050565b610b0b91905b80821115610b07576000816000905550600101610aef565b5090565b905600a165627a7a72305820c7020aac348361907f265bc7ec5e7f0789b64617192848847ddeac80e3a768660029",
  "source": "pragma solidity ^0.4.17;\n\ncontract UserCrud {\n\n    struct UserStruct {\n        bytes32 email;\n        uint age;\n        uint index;\n    }\n\n    // A mapping is a fast key:value structure, it preempitively assigns the whole allowed space with the type.\n    // ie. You can't push to it, but you will always be able to assign a value with (in this case) the address as the index\n    mapping (address => UserStruct) private userStructs;\n\n    // Here we'll store all user indexes that are in the \"db\"\n    // private in case we have child constract, prevent modification\n    address[] private userIndex;\n\n    event LogNewUser   (address indexed userAddress, uint index, bytes32 userEmail, uint userAge);\n    event LogUpdateUser(address indexed userAddress, uint index, bytes32 userEmail, uint userAge);\n    event LogDeleteUser(address indexed userAddress, uint index);\n\n    // INSERT\n    function insertUser(address userAddress, bytes32 userEmail, uint userAge) public returns (uint index) {\n        require(isUser(userAddress) == false); // Validate user before insert\n\n        userStructs[userAddress].email = userEmail;\n        userStructs[userAddress].age = userAge;\n\n        // Set a pointer to the new userIndex item (push returns the new address length, use this minus 1 to get a pointer; saves on gas)\n        userStructs[userAddress].index = userIndex.push(userAddress) - 1;\n\n        LogNewUser(userAddress, userStructs[userAddress].index, userEmail, userAge);\n\n        return userIndex.length - 1;\n    }\n\n    // UPDATE\n    function updateUser(address userAddress, bytes32 userEmail, uint userAge) public returns (bool success) {\n        require(isUser(userAddress)); // Validate user before insert\n\n        userStructs[userAddress].email = userEmail;\n        userStructs[userAddress].age = userAge;\n\n        LogUpdateUser(userAddress, userStructs[userAddress].index, userEmail, userAge);\n\n        return true;\n    }\n\n    // GET\n    function getUser(address userAddress) public view returns(bytes32 email, uint age) {\n        require(isUser(userAddress)); // Validate user before insert\n        return (\n            userStructs[userAddress].email,\n            userStructs[userAddress].age\n        );\n    }\n\n    // GET COUNT\n    function getUsercount() public view returns(uint count) {\n        return userIndex.length;\n    }\n\n    // GET BY INDEX\n    function getUserByIndex(uint index) public view returns(address userAddress) {\n        return userIndex[index];\n    }\n\n    // DELETE user\n    // Deleting can be expensive. Here instead of rewriting the userIndex array, we move the last item into the position \n    // where the deleted item is. Then update struct indexes.\n    function deleteUser(address userAddress) public returns (uint index) {\n        require(isUser(userAddress)); // Validate user before delete\n\n        uint rowToDelete = userStructs[userAddress].index; // This is what we're deleting\n        address keyToMove = userIndex[userIndex.length - 1]; // This is the last item in the userInde array. We'll use it to overwrite the row we're deleting\n\n        userIndex[rowToDelete] = keyToMove; // Overwrite row with the last userIndex item\n        userStructs[keyToMove].index = rowToDelete; // Update the index of the userstruct that was moved(last one) to the overwriten key\n        userIndex.length--; // Removed the last item in the userIndex (the one moved), since it's not in the overwrite location\n\n        LogDeleteUser(userAddress, rowToDelete); // Notify of our deleted user\n        LogUpdateUser(keyToMove, rowToDelete, userStructs[keyToMove].email, userStructs[keyToMove].age); // Notify of the index update\n\n        return rowToDelete; //return the row we deleted\n    }\n\n    // Validation\n    function isUser(address userAddress) public view returns (bool success) {\n        // If there are no users in the userIndex, the address is not a saved user\n        if (userIndex.length == 0) {\n            return false;\n        }\n        // check the index of the user struct vs the user index in the userindex array\n        // (remember, all addresses are present in the user structs. The default value for the index is 0)\n        return (userIndex[userStructs[userAddress].index] == userAddress);\n    }\n\n}",
  "sourcePath": "/Users/maxarias/workspace/crud-dapp/contracts/UserCrud.sol",
  "compiler": {
    "name": "solc",
    "version": "0.4.18+commit.9cf6e910.Emscripten.clang"
  },
  "schemaVersion": "1.0.1",
  "updatedAt": "2018-01-10T15:41:36.073Z"
}